{
  "transactions": [
    {
      "hash": "0xa871f669cb7b20ddf51de38ba2c5996b286a5a87468347181db1b17da1c20c95",
      "transactionType": "CALL",
      "contractName": null,
      "contractAddress": "0x42f08aa61794dc6ebdbe7da14d34b1be4452f301",
      "function": "createPool(address,(bool,bool))",
      "arguments": [
        "0x9Ce2062b085A2268E8d769fFC040f6692315fd2c",
        "(true, true)"
      ],
      "transaction": {
        "from": "0x51908f598a5e0d8f1a3babfa6df76f9704dad072",
        "to": "0x42f08aa61794dc6ebdbe7da14d34b1be4452f301",
        "gas": "0x90ee3",
        "value": "0x0",
        "input": "0xc704f52e0000000000000000000000009ce2062b085a2268e8d769ffc040f6692315fd2c00000000000000000000000000000000000000000000000000000000000000010000000000000000000000000000000000000000000000000000000000000001",
        "nonce": "0x13b",
        "chainId": "0xaa36a7"
      },
      "additionalContracts": [
        {
          "transactionType": "CREATE",
          "address": "0x9c679d55f5286e7ea50e4da97700b2316366147d",
          "initCode": "0x60806040526040516106d23803806106d283398101604081905261002291610420565b61002e82826000610035565b5050610550565b61003e836100f6565b6040516001600160a01b038416907f1cf3b03a6cf19fa2baba4df148e9dcabedea7f8a5c07840e207e5c089be95d3e90600090a260008251118061007f5750805b156100f1576100ef836001600160a01b0316635c60da1b6040518163ffffffff1660e01b8152600401602060405180830381865afa1580156100c5573d6000803e3d6000fd5b505050506040513d601f19601f820116820180604052508101906100e991906104e6565b8361027a565b505b505050565b6001600160a01b0381163b6101605760405162461bcd60e51b815260206004820152602560248201527f455243313936373a206e657720626561636f6e206973206e6f74206120636f6e6044820152641d1c9858dd60da1b60648201526084015b60405180910390fd5b6101d4816001600160a01b0316635c60da1b6040518163ffffffff1660e01b8152600401602060405180830381865afa1580156101a1573d6000803e3d6000fd5b505050506040513d601f19601f820116820180604052508101906101c591906104e6565b6001600160a01b03163b151590565b6102395760405162461bcd60e51b815260206004820152603060248201527f455243313936373a20626561636f6e20696d706c656d656e746174696f6e206960448201526f1cc81b9bdd08184818dbdb9d1c9858dd60821b6064820152608401610157565b7fa3f0ad74e5423aebfd80d3ef4346578335a9a72aeaee59ff6cb3582b35133d5080546001600160a01b0319166001600160a01b0392909216919091179055565b606061029f83836040518060600160405280602781526020016106ab602791396102a6565b9392505050565b6060600080856001600160a01b0316856040516102c39190610501565b600060405180830381855af49150503d80600081146102fe576040519150601f19603f3d011682016040523d82523d6000602084013e610303565b606091505b5090925090506103158683838761031f565b9695505050505050565b6060831561038e578251600003610387576001600160a01b0385163b6103875760405162461bcd60e51b815260206004820152601d60248201527f416464726573733a2063616c6c20746f206e6f6e2d636f6e74726163740000006044820152606401610157565b5081610398565b61039883836103a0565b949350505050565b8151156103b05781518083602001fd5b8060405162461bcd60e51b8152600401610157919061051d565b80516001600160a01b03811681146103e157600080fd5b919050565b634e487b7160e01b600052604160045260246000fd5b60005b838110156104175781810151838201526020016103ff565b50506000910152565b6000806040838503121561043357600080fd5b61043c836103ca565b60208401519092506001600160401b0381111561045857600080fd5b8301601f8101851361046957600080fd5b80516001600160401b03811115610482576104826103e6565b604051601f8201601f19908116603f011681016001600160401b03811182821017156104b0576104b06103e6565b6040528181528282016020018710156104c857600080fd5b6104d98260208301602086016103fc565b8093505050509250929050565b6000602082840312156104f857600080fd5b61029f826103ca565b600082516105138184602087016103fc565b9190910192915050565b602081526000825180602084015261053c8160408501602087016103fc565b601f01601f19169190910160400192915050565b61014c8061055f6000396000f3fe60806040523661001357610011610017565b005b6100115b610027610022610029565b6100c2565b565b600061005c7fa3f0ad74e5423aebfd80d3ef4346578335a9a72aeaee59ff6cb3582b35133d50546001600160a01b031690565b6001600160a01b0316635c60da1b6040518163ffffffff1660e01b8152600401602060405180830381865afa158015610099573d6000803e3d6000fd5b505050506040513d601f19601f820116820180604052508101906100bd91906100e6565b905090565b3660008037600080366000845af43d6000803e8080156100e1573d6000f35b3d6000fd5b6000602082840312156100f857600080fd5b81516001600160a01b038116811461010f57600080fd5b939250505056fea26469706673582212204933b2f0336dc172856459318d1b0bf5c1c6aa7e37ff4872e7a4c07320182aad64736f6c634300081a0033416464726573733a206c6f772d6c6576656c2064656c65676174652063616c6c206661696c6564000000000000000000000000712a3edf1fb9070695bf08adf82c289fb1972e780000000000000000000000000000000000000000000000000000000000000040000000000000000000000000000000000000000000000000000000000000008489287e0a00000000000000000000000042f08aa61794dc6ebdbe7da14d34b1be4452f3010000000000000000000000009ce2062b085a2268e8d769ffc040f6692315fd2c0000000000000000000000000000000000000000000000000000000000000001000000000000000000000000000000000000000000000000000000000000000100000000000000000000000000000000000000000000000000000000"
        }
      ],
      "isFixedGasLimit": false
    }
  ],
  "receipts": [
    {
      "status": "0x1",
      "cumulativeGasUsed": "0xa05707",
      "logs": [
        {
          "address": "0x9c679d55f5286e7ea50e4da97700b2316366147d",
          "topics": [
            "0x1cf3b03a6cf19fa2baba4df148e9dcabedea7f8a5c07840e207e5c089be95d3e",
            "0x000000000000000000000000712a3edf1fb9070695bf08adf82c289fb1972e78"
          ],
          "data": "0x",
          "blockHash": "0xdc7e800035c89cacc510ea38c8c128c417e522799b86cf1c4e1081b730f71a45",
          "blockNumber": "0x6d18f1",
          "transactionHash": "0xa871f669cb7b20ddf51de38ba2c5996b286a5a87468347181db1b17da1c20c95",
          "transactionIndex": "0xac",
          "logIndex": "0x54",
          "removed": false
        },
        {
          "address": "0x9c679d55f5286e7ea50e4da97700b2316366147d",
          "topics": [
            "0x7f26b83ff96e1f2b6a682f133852f6798a09c465da95921460cefb3847402498"
          ],
          "data": "0x0000000000000000000000000000000000000000000000000000000000000001",
          "blockHash": "0xdc7e800035c89cacc510ea38c8c128c417e522799b86cf1c4e1081b730f71a45",
          "blockNumber": "0x6d18f1",
          "transactionHash": "0xa871f669cb7b20ddf51de38ba2c5996b286a5a87468347181db1b17da1c20c95",
          "transactionIndex": "0xac",
          "logIndex": "0x55",
          "removed": false
        },
        {
          "address": "0x9ce2062b085a2268e8d769ffc040f6692315fd2c",
          "topics": [
            "0x30f416fa68fca014a0f334464c64b000ba53e99b6d2afdea9d5ca756372d5985",
            "0x0000000000000000000000009823364056bca85dc3c4a3b96801314d082c8eb9",
            "0x0000000000000000000000009c679d55f5286e7ea50e4da97700b2316366147d"
          ],
          "data": "0x0000000000000000000000000000000000000000000000000000000000000000",
          "blockHash": "0xdc7e800035c89cacc510ea38c8c128c417e522799b86cf1c4e1081b730f71a45",
          "blockNumber": "0x6d18f1",
          "transactionHash": "0xa871f669cb7b20ddf51de38ba2c5996b286a5a87468347181db1b17da1c20c95",
          "transactionIndex": "0xac",
          "logIndex": "0x56",
          "removed": false
        },
        {
          "address": "0x1bd3b6522102f9ea406807f8ecaeb2d96278a83f",
          "topics": [
            "0xddf252ad1be2c89b69c2b068fc378daa952ba7f163c4a11628f55a4df523b3ef",
            "0x0000000000000000000000000000000000000000000000000000000000000000",
            "0x00000000000000000000000042f08aa61794dc6ebdbe7da14d34b1be4452f301",
            "0x0dd0185e59d5cd995bc3bb11a8f1d76b856710887ae27481644b8e1ebf17c7f5"
          ],
          "data": "0x",
          "blockHash": "0xdc7e800035c89cacc510ea38c8c128c417e522799b86cf1c4e1081b730f71a45",
          "blockNumber": "0x6d18f1",
          "transactionHash": "0xa871f669cb7b20ddf51de38ba2c5996b286a5a87468347181db1b17da1c20c95",
          "transactionIndex": "0xac",
          "logIndex": "0x57",
          "removed": false
        },
        {
          "address": "0x9823364056bca85dc3c4a3b96801314d082c8eb9",
          "topics": [
            "0x9c5d829b9b23efc461f9aeef91979ec04bb903feb3bee4f26d22114abfc7335b",
            "0x0000000000000000000000009ce2062b085a2268e8d769ffc040f6692315fd2c",
            "0x00000000000000000000000042f08aa61794dc6ebdbe7da14d34b1be4452f301"
          ],
          "data": "0x0000000000000000000000009c679d55f5286e7ea50e4da97700b2316366147d",
          "blockHash": "0xdc7e800035c89cacc510ea38c8c128c417e522799b86cf1c4e1081b730f71a45",
          "blockNumber": "0x6d18f1",
          "transactionHash": "0xa871f669cb7b20ddf51de38ba2c5996b286a5a87468347181db1b17da1c20c95",
          "transactionIndex": "0xac",
          "logIndex": "0x58",
          "removed": false
        }
      ],
      "logsBloom": "0x00004000000000000000000000000000200000000000040000000000000000000400000000000000000000000000000002000000000000000084000000000000000000040000000000000018003000000000000400000000000300000000000000000000020000000000000000000800000000000000000000000010000002000000000201000000000000200440088000020000000080000000000000000000020000000000040000020000000400000000800000000000000000000000000000000002000000000800000000040000000000000000000004840000000020000000080090000000000000000100000000000000000001400000000008000008",
      "type": "0x2",
      "transactionHash": "0xa871f669cb7b20ddf51de38ba2c5996b286a5a87468347181db1b17da1c20c95",
      "transactionIndex": "0xac",
      "blockHash": "0xdc7e800035c89cacc510ea38c8c128c417e522799b86cf1c4e1081b730f71a45",
      "blockNumber": "0x6d18f1",
      "gasUsed": "0x68ed6",
      "effectiveGasPrice": "0x2890222f3",
      "from": "0x51908f598a5e0d8f1a3babfa6df76f9704dad072",
      "to": "0x42f08aa61794dc6ebdbe7da14d34b1be4452f301",
      "contractAddress": null
    }
  ],
  "libraries": [],
  "pending": [],
  "returns": {},
  "timestamp": 1732539686,
  "chain": 11155111,
  "commit": "2d45d8e"
}