{
  "transactions": [
    {
      "hash": "0x8aa0e8875ef31735279ff64e878915c824a2ce61d0e51dabfd37e5d75c2a2c99",
      "transactionType": "CREATE",
      "contractName": null,
      "contractAddress": "0x5eb49590d8521ca45082c5be9622bfddd1d04d7c",
      "function": null,
      "arguments": null,
      "transaction": {
        "from": "0x51908f598a5e0d8f1a3babfa6df76f9704dad072",
        "gas": "0x69bad",
        "value": "0x0",
        "input": "0x6080604052348015600e575f5ffd5b5061050f8061001c5f395ff3fe60806040526004361061002c575f3560e01c80634a0687ef1461004357806375b30be6146100625761003b565b3661003b57610039610081565b005b610039610081565b34801561004e575f5ffd5b5061003961005d366004610311565b610093565b34801561006d575f5ffd5b5061003961007c3660046103d2565b610198565b61009161008c6102b1565b6102df565b565b6001600160a01b0381166100ee5760405162461bcd60e51b815260206004820152601760248201527f5555505350726f78793a207a65726f206164647265737300000000000000000060448201526064015b60405180910390fd5b5f6101177f360894a13ba1a3210667c828492db98dca3e2076cc3735a920a3ca505d382bbc5490565b6001600160a01b03161461016d5760405162461bcd60e51b815260206004820152601e60248201527f5555505350726f78793a20616c726561647920696e697469616c697a6564000060448201526064016100e5565b610195817f360894a13ba1a3210667c828492db98dca3e2076cc3735a920a3ca505d382bbc55565b50565b604051633504b4d160e21b81523060048201526001600160a01b0386169063d412d344906024015f604051808303815f87803b1580156101d6575f5ffd5b505af11580156101e8573d5f5f3e3d5ffd5b50506040516285fc1360e71b81523092506342fe09809150610215905f9060129089908990600401610490565b5f604051808303815f87803b15801561022c575f5ffd5b505af115801561023e573d5f5f3e3d5ffd5b505060405163c68d428360e01b81526001600160a01b038516600482015260248101849052606060448201525f606482015230925063c68d428391506084015f604051808303815f87803b158015610294575f5ffd5b505af11580156102a6573d5f5f3e3d5ffd5b505050505050505050565b5f6102da7f360894a13ba1a3210667c828492db98dca3e2076cc3735a920a3ca505d382bbc5490565b905090565b365f5f375f5f365f845af43d5f5f3e8080156102f9573d5ff35b3d5ffd5b6001600160a01b0381168114610195575f5ffd5b5f60208284031215610321575f5ffd5b813561032c816102fd565b9392505050565b634e487b7160e01b5f52604160045260245ffd5b5f82601f830112610356575f5ffd5b813567ffffffffffffffff81111561037057610370610333565b604051601f8201601f19908116603f0116810167ffffffffffffffff8111828210171561039f5761039f610333565b6040528181528382016020018510156103b6575f5ffd5b816020850160208301375f918101602001919091529392505050565b5f5f5f5f5f60a086880312156103e6575f5ffd5b85356103f1816102fd565b9450602086013567ffffffffffffffff81111561040c575f5ffd5b61041888828901610347565b945050604086013567ffffffffffffffff811115610434575f5ffd5b61044088828901610347565b9350506060860135610451816102fd565b949793965091946080013592915050565b5f81518084528060208401602086015e5f602082860101526020601f19601f83011685010191505092915050565b6001600160a01b038516815260ff841660208201526080604082018190525f906104bc90830185610462565b82810360608401526104ce8185610462565b97965050505050505056fea26469706673582212204d0a384a132b7a1bcdcbebd6b8c0dcda9135b83970d06391eece0817434e93f464736f6c634300081c0033",
        "nonce": "0x125",
        "chainId": "0xaa36a7"
      },
      "additionalContracts": [],
      "isFixedGasLimit": false
    },
    {
      "hash": "0x90eef8a790d63455d800185544544865de4a2b5d7bad1b60faac85b10cc485e3",
      "transactionType": "CALL",
      "contractName": null,
      "contractAddress": "0x5eb49590d8521ca45082c5be9622bfddd1d04d7c",
      "function": "initialize(address,string,string,address,uint256)",
      "arguments": [
        "0x254C2e152E8602839D288A7bccdf3d0974597193",
        "\"Super Fake Token2\"",
        "\"SFT2x\"",
        "0x51908F598A5e0d8F1A3bAbFa6DF76F9704daD072",
        "100000000000000000000"
      ],
      "transaction": {
        "from": "0x51908f598a5e0d8f1a3babfa6df76f9704dad072",
        "to": "0x5eb49590d8521ca45082c5be9622bfddd1d04d7c",
        "gas": "0x59b68",
        "value": "0x0",
        "input": "0x75b30be6000000000000000000000000254c2e152e8602839d288a7bccdf3d097459719300000000000000000000000000000000000000000000000000000000000000a000000000000000000000000000000000000000000000000000000000000000e000000000000000000000000051908f598a5e0d8f1a3babfa6df76f9704dad0720000000000000000000000000000000000000000000000056bc75e2d63100000000000000000000000000000000000000000000000000000000000000000001153757065722046616b6520546f6b656e3200000000000000000000000000000000000000000000000000000000000000000000000000000000000000000000055346543278000000000000000000000000000000000000000000000000000000",
        "nonce": "0x126",
        "chainId": "0xaa36a7"
      },
      "additionalContracts": [],
      "isFixedGasLimit": false
    }
  ],
  "receipts": [
    {
      "status": "0x1",
      "cumulativeGasUsed": "0x835c44",
      "logs": [],
      "logsBloom": "0x00000000000000000000000000000000000000000000000000000000000000000000000000000000000000000000000000000000000000000000000000000000000000000000000000000000000000000000000000000000000000000000000000000000000000000000000000000000000000000000000000000000000000000000000000000000000000000000000000000000000000000000000000000000000000000000000000000000000000000000000000000000000000000000000000000000000000000000000000000000000000000000000000000000000000000000000000000000000000000000000000000000000000000000000000000000",
      "type": "0x2",
      "transactionHash": "0x8aa0e8875ef31735279ff64e878915c824a2ce61d0e51dabfd37e5d75c2a2c99",
      "transactionIndex": "0x44",
      "blockHash": "0xfc21b67c45a28bac70d9d47dab0c427ae2c04aa6ff902c67d1c5f019a213baec",
      "blockNumber": "0x6cdbef",
      "gasUsed": "0x5154a",
      "effectiveGasPrice": "0x42e1d1c6",
      "from": "0x51908f598a5e0d8f1a3babfa6df76f9704dad072",
      "to": null,
      "contractAddress": "0x5eb49590d8521ca45082c5be9622bfddd1d04d7c"
    },
    {
      "status": "0x1",
      "cumulativeGasUsed": "0x9930eb",
      "logs": [
        {
          "address": "0x254c2e152e8602839d288a7bccdf3d0974597193",
          "topics": [
            "0x437790724a6e97b75d23117f28cdd4b1beeafc34f7a0911ef256e9334f4369a5",
            "0x0000000000000000000000005eb49590d8521ca45082c5be9622bfddd1d04d7c"
          ],
          "data": "0x",
          "blockHash": "0xfc21b67c45a28bac70d9d47dab0c427ae2c04aa6ff902c67d1c5f019a213baec",
          "blockNumber": "0x6cdbef",
          "transactionHash": "0x90eef8a790d63455d800185544544865de4a2b5d7bad1b60faac85b10cc485e3",
          "transactionIndex": "0x57",
          "logIndex": "0x2e",
          "removed": false
        },
        {
          "address": "0x1820a4b7618bde71dce8cdc73aab6c95905fad24",
          "topics": [
            "0x93baa6efbd2244243bfee6ce4cfdd1d04fc4c0e9a786abd3a41313bd352db153",
            "0x0000000000000000000000005eb49590d8521ca45082c5be9622bfddd1d04d7c",
            "0xac7fbab5f54a3ca8194167523c6753bfeb96a445279294b6125b68cce2177054",
            "0x0000000000000000000000005eb49590d8521ca45082c5be9622bfddd1d04d7c"
          ],
          "data": "0x",
          "blockHash": "0xfc21b67c45a28bac70d9d47dab0c427ae2c04aa6ff902c67d1c5f019a213baec",
          "blockNumber": "0x6cdbef",
          "transactionHash": "0x90eef8a790d63455d800185544544865de4a2b5d7bad1b60faac85b10cc485e3",
          "transactionIndex": "0x57",
          "logIndex": "0x2f",
          "removed": false
        },
        {
          "address": "0x1820a4b7618bde71dce8cdc73aab6c95905fad24",
          "topics": [
            "0x93baa6efbd2244243bfee6ce4cfdd1d04fc4c0e9a786abd3a41313bd352db153",
            "0x0000000000000000000000005eb49590d8521ca45082c5be9622bfddd1d04d7c",
            "0xaea199e31a596269b42cdafd93407f14436db6e4cad65417994c2eb37381e05a",
            "0x0000000000000000000000005eb49590d8521ca45082c5be9622bfddd1d04d7c"
          ],
          "data": "0x",
          "blockHash": "0xfc21b67c45a28bac70d9d47dab0c427ae2c04aa6ff902c67d1c5f019a213baec",
          "blockNumber": "0x6cdbef",
          "transactionHash": "0x90eef8a790d63455d800185544544865de4a2b5d7bad1b60faac85b10cc485e3",
          "transactionIndex": "0x57",
          "logIndex": "0x30",
          "removed": false
        },
        {
          "address": "0x5eb49590d8521ca45082c5be9622bfddd1d04d7c",
          "topics": [
            "0xddf252ad1be2c89b69c2b068fc378daa952ba7f163c4a11628f55a4df523b3ef",
            "0x0000000000000000000000000000000000000000000000000000000000000000",
            "0x0000000000000000000000000000000000000000000000000000000000000000"
          ],
          "data": "0x0000000000000000000000000000000000000000000000000000000000000000",
          "blockHash": "0xfc21b67c45a28bac70d9d47dab0c427ae2c04aa6ff902c67d1c5f019a213baec",
          "blockNumber": "0x6cdbef",
          "transactionHash": "0x90eef8a790d63455d800185544544865de4a2b5d7bad1b60faac85b10cc485e3",
          "transactionIndex": "0x57",
          "logIndex": "0x31",
          "removed": false
        },
        {
          "address": "0x5eb49590d8521ca45082c5be9622bfddd1d04d7c",
          "topics": [
            "0x7e644d79422f17c01e4894b5f4f588d331ebfa28653d42ae832dc59e38c9798f",
            "0x0000000000000000000000000000000000000000000000000000000000000000",
            "0x0000000000000000000000000000000000000000000000000000000000000000"
          ],
          "data": "0x",
          "blockHash": "0xfc21b67c45a28bac70d9d47dab0c427ae2c04aa6ff902c67d1c5f019a213baec",
          "blockNumber": "0x6cdbef",
          "transactionHash": "0x90eef8a790d63455d800185544544865de4a2b5d7bad1b60faac85b10cc485e3",
          "transactionIndex": "0x57",
          "logIndex": "0x32",
          "removed": false
        },
        {
          "address": "0x5eb49590d8521ca45082c5be9622bfddd1d04d7c",
          "topics": [
            "0x7f26b83ff96e1f2b6a682f133852f6798a09c465da95921460cefb3847402498"
          ],
          "data": "0x0000000000000000000000000000000000000000000000000000000000000001",
          "blockHash": "0xfc21b67c45a28bac70d9d47dab0c427ae2c04aa6ff902c67d1c5f019a213baec",
          "blockNumber": "0x6cdbef",
          "transactionHash": "0x90eef8a790d63455d800185544544865de4a2b5d7bad1b60faac85b10cc485e3",
          "transactionIndex": "0x57",
          "logIndex": "0x33",
          "removed": false
        },
        {
          "address": "0x5eb49590d8521ca45082c5be9622bfddd1d04d7c",
          "topics": [
            "0x2fe5be0146f74c5bce36c0b80911af6c7d86ff27e89d5cfa61fc681327954e5d",
            "0x0000000000000000000000005eb49590d8521ca45082c5be9622bfddd1d04d7c",
            "0x00000000000000000000000051908f598a5e0d8f1a3babfa6df76f9704dad072"
          ],
          "data": "0x0000000000000000000000000000000000000000000000056bc75e2d631000000000000000000000000000000000000000000000000000000000000000000060000000000000000000000000000000000000000000000000000000000000008000000000000000000000000000000000000000000000000000000000000000000000000000000000000000000000000000000000000000000000000000000000",
          "blockHash": "0xfc21b67c45a28bac70d9d47dab0c427ae2c04aa6ff902c67d1c5f019a213baec",
          "blockNumber": "0x6cdbef",
          "transactionHash": "0x90eef8a790d63455d800185544544865de4a2b5d7bad1b60faac85b10cc485e3",
          "transactionIndex": "0x57",
          "logIndex": "0x34",
          "removed": false
        },
        {
          "address": "0x5eb49590d8521ca45082c5be9622bfddd1d04d7c",
          "topics": [
            "0xddf252ad1be2c89b69c2b068fc378daa952ba7f163c4a11628f55a4df523b3ef",
            "0x0000000000000000000000000000000000000000000000000000000000000000",
            "0x00000000000000000000000051908f598a5e0d8f1a3babfa6df76f9704dad072"
          ],
          "data": "0x0000000000000000000000000000000000000000000000056bc75e2d63100000",
          "blockHash": "0xfc21b67c45a28bac70d9d47dab0c427ae2c04aa6ff902c67d1c5f019a213baec",
          "blockNumber": "0x6cdbef",
          "transactionHash": "0x90eef8a790d63455d800185544544865de4a2b5d7bad1b60faac85b10cc485e3",
          "transactionIndex": "0x57",
          "logIndex": "0x35",
          "removed": false
        }
      ],
      "logsBloom": "0x00000000060000200000000000200000000000000000000000000000100000081048000000000200400000000080000000000000000000000000000000000000000000000000000040000008000000000000100000000000000000000000000000000100020400000000000000000800000010800020000000000010000000000000040000000000000000000000080000000000000080000000000000800000000000000020000000000000000400000000000000000000200800000020000000000002000000000000000000040002000000000410000000000000000020000000050000000000000000080000000002000000000000000000000000000000",
      "type": "0x2",
      "transactionHash": "0x90eef8a790d63455d800185544544865de4a2b5d7bad1b60faac85b10cc485e3",
      "transactionIndex": "0x57",
      "blockHash": "0xfc21b67c45a28bac70d9d47dab0c427ae2c04aa6ff902c67d1c5f019a213baec",
      "blockNumber": "0x6cdbef",
      "gasUsed": "0x40f36",
      "effectiveGasPrice": "0x42e1d1c6",
      "from": "0x51908f598a5e0d8f1a3babfa6df76f9704dad072",
      "to": "0x5eb49590d8521ca45082c5be9622bfddd1d04d7c",
      "contractAddress": null
    }
  ],
  "libraries": [],
  "pending": [],
  "returns": {},
  "timestamp": 1732340266,
  "chain": 11155111,
  "commit": "855031f"
}